S010000050726163746963652E73726563E9
S113000071C0000081C000007FC000007DC00000FE
S11300107BC0000079C0000077C0000075C00000FC
S113002073C0000071C000006FC000006DC000000C
S11300306BC0000069C0000067C0000065C000001C
S113004063C0000061C000005FC000005DC000002C
S11300505BC000005AC0000057C0000055C000003B
S113006053C0000051C000004FC000004DC000004C
S11300704BC0000049C0000047C0000045C000005C
S113008043C0000041C000003FC000003DC000006C
S11300903BC0000039C0000037C0000035C000007C
S11300A033C0000031C000002FC000002DC000008C
S11300B02BC0000029C0000027C0000025C000009C
S11300C023C0000021C000001FC000001DC00000AC
S11300D01BC0000019C0000017C0000015C00000BC
S11300E013C0000011241FBECFEFD1E2DEBFCDBF8D
S11300F000E00CBF22E0A0E0B2E001C01D92A830F5
S1130100B207E1F760D07AC07BCF1F920F920FB68F
S11301100F9211248F9380910202882329F08091F9
S1130120020281508093020280910702882329F001
S113013080910702815080930702809106028823F0
S113014029F0809106028150809306028F910F90CE
S11301500FBE0F901F90189580EF84B98FE085B97A
S113016082E080936E0099EF97BD84BD85E085BDE4
S11301708FEF809301028AEF809302028DE78093D0
S113018007028CE3809306021092050284E08093B8
S113019000027894089580910502882331F08091BB
S11301A0020286958695809302029091010280E274
S11301B089278093010285B9089583B18095807859
S11301C0809305020895C8DFDAEFCDE71CE3809140
S11301D00202811103C0D0930202DDDF8091070285
S11301E0811104C0C093070210920002809106029C
S11301F08111EDCF10930602E0DFE9CFF894FFCF31
S9030000FC
