S00C00005461736B2E7372656385
S113000071C0000081C000007FC000007DC00000FE
S11300107BC0000079C0000077C0000075C00000FC
S113002073C0000071C000006FC000006DC000000C
S11300306BC0000069C0000067C0000065C000001C
S113004063C0000061C000005FC000005DC000002C
S11300505BC000005AC0000057C0000055C000003B
S113006053C0000051C000004FC000004DC000004C
S11300704BC0000049C0000047C0000045C000005C
S113008043C0000041C000003FC000003DC000006C
S11300903BC0000039C0000037C0000035C000007C
S11300A033C0000031C000002FC000002DC000008C
S11300B02BC0000029C0000027C0000025C000009C
S11300C023C0000021C000001FC000001DC00000AC
S11300D01BC0000019C0000017C0000015C00000BC
S11300E013C0000011241FBECFEFD1E2DEBFCDBF8D
S11300F000E00CBF22E0A0E0B2E001C01D92A830F5
S1130100B207E1F770D089C07BCF1F920F920FB670
S11301100F9211248F9380910202882329F08091F9
S1130120020281508093020280910702882329F001
S113013080910702815080930702809106028823F0
S113014029F0809106028150809306028F910F90CE
S11301500FBE0F901F90189587E084B985B982E08F
S113016080936E0099EF97BD84BD83E085BD8FEFCA
S1130170809301028AEF809302028DE78093070245
S11301808CE38093060284E08093000210920502BF
S11301907894089580910502882331F080910202B9
S11301A086958695809302029091010282E08927C8
S11301B08093010285B9089580910002815019F05D
S11301C080930002089584E08093000290910102DC
S11301D089278093010285B9089583B1809580743D
S11301E0809305020895B8DFDAEFCDE71CE3809130
S11301F00202811103C0D0930202CCDF8091070276
S1130200811103C0C0930702D7DF809106028111D8
S1110210EECF10930602E1DFEACFF894FFCFA1
S9030000FC
